{
  "_format": "hh3-artifact-1",
  "contractName": "FileVerification",
  "sourceName": "contracts/FileVerification.sol",
  "abi": [
    {
      "anonymous": false,
      "inputs": [
        {
          "indexed": true,
          "internalType": "address",
          "name": "revoker",
          "type": "address"
        },
        {
          "indexed": false,
          "internalType": "string",
          "name": "fileHash",
          "type": "string"
        },
        {
          "indexed": false,
          "internalType": "uint256",
          "name": "timestamp",
          "type": "uint256"
        }
      ],
      "name": "FileRevoked",
      "type": "event"
    },
    {
      "anonymous": false,
      "inputs": [
        {
          "indexed": true,
          "internalType": "address",
          "name": "verifier",
          "type": "address"
        },
        {
          "indexed": false,
          "internalType": "string",
          "name": "fileHash",
          "type": "string"
        },
        {
          "indexed": false,
          "internalType": "uint256",
          "name": "timestamp",
          "type": "uint256"
        }
      ],
      "name": "FileVerified",
      "type": "event"
    },
    {
      "inputs": [
        {
          "internalType": "uint256",
          "name": "",
          "type": "uint256"
        }
      ],
      "name": "allVerifiedHashes",
      "outputs": [
        {
          "internalType": "string",
          "name": "",
          "type": "string"
        }
      ],
      "stateMutability": "view",
      "type": "function"
    },
    {
      "inputs": [
        {
          "internalType": "string",
          "name": "fileHash",
          "type": "string"
        }
      ],
      "name": "getVerificationDetails",
      "outputs": [
        {
          "internalType": "address",
          "name": "verifier",
          "type": "address"
        },
        {
          "internalType": "uint256",
          "name": "timestamp",
          "type": "uint256"
        },
        {
          "internalType": "bool",
          "name": "isVerified",
          "type": "bool"
        }
      ],
      "stateMutability": "view",
      "type": "function"
    },
    {
      "inputs": [
        {
          "internalType": "uint256",
          "name": "offset",
          "type": "uint256"
        },
        {
          "internalType": "uint256",
          "name": "limit",
          "type": "uint256"
        }
      ],
      "name": "getVerifiedFilesBatch",
      "outputs": [
        {
          "internalType": "string[]",
          "name": "",
          "type": "string[]"
        }
      ],
      "stateMutability": "view",
      "type": "function"
    },
    {
      "inputs": [],
      "name": "getVerifiedFilesCount",
      "outputs": [
        {
          "internalType": "uint256",
          "name": "",
          "type": "uint256"
        }
      ],
      "stateMutability": "view",
      "type": "function"
    },
    {
      "inputs": [
        {
          "internalType": "string",
          "name": "fileHash",
          "type": "string"
        }
      ],
      "name": "isFileVerified",
      "outputs": [
        {
          "internalType": "bool",
          "name": "",
          "type": "bool"
        }
      ],
      "stateMutability": "view",
      "type": "function"
    },
    {
      "inputs": [
        {
          "internalType": "string",
          "name": "",
          "type": "string"
        }
      ],
      "name": "verifiedFiles",
      "outputs": [
        {
          "internalType": "address",
          "name": "verifier",
          "type": "address"
        },
        {
          "internalType": "uint256",
          "name": "timestamp",
          "type": "uint256"
        },
        {
          "internalType": "bool",
          "name": "isVerified",
          "type": "bool"
        }
      ],
      "stateMutability": "view",
      "type": "function"
    },
    {
      "inputs": [
        {
          "internalType": "string",
          "name": "fileHash",
          "type": "string"
        }
      ],
      "name": "verifyFile",
      "outputs": [
        {
          "internalType": "bool",
          "name": "",
          "type": "bool"
        }
      ],
      "stateMutability": "nonpayable",
      "type": "function"
    }
  ],
  "bytecode": "0x6080604052348015600e575f5ffd5b506109718061001c5f395ff3fe608060405234801561000f575f5ffd5b506004361061007a575f3560e01c8063d37b70e511610058578063d37b70e514610133578063e1caff2814610146578063ea77628714610157578063ed3849ee1461016a575f5ffd5b8063ad9455e71461007e578063adcb644c146100f0578063b027102314610110575b5f5ffd5b6100c461008c3660046105e9565b80516020818301810180515f825292820191909301209152805460018201546002909201546001600160a01b03909116919060ff1683565b604080516001600160a01b03909416845260208401929092521515908201526060015b60405180910390f35b6101036100fe36600461069c565b61018a565b6040516100e791906106e1565b61012361011e3660046105e9565b610230565b60405190151581526020016100e7565b6101236101413660046105e9565b6103e8565b6001546040519081526020016100e7565b6100c46101653660046105e9565b610414565b61017d6101783660046106fa565b610476565b6040516100e7919061071a565b60018181548110610199575f80fd5b905f5260205f20015f9150905080546101b19061077d565b80601f01602080910402602001604051908101604052809291908181526020018280546101dd9061077d565b80156102285780601f106101ff57610100808354040283529160200191610228565b820191905f5260205f20905b81548152906001019060200180831161020b57829003601f168201915b505050505081565b5f81805160401461027e5760405162461bcd60e51b8152602060048201526013602482015272092dcecc2d8d2c840d0c2e6d040d8cadccee8d606b1b60448201526064015b60405180910390fd5b5f8360405161028d91906107af565b9081526040519081900360200190206002015460ff16156102e85760405162461bcd60e51b8152602060048201526015602482015274119a5b1948185b1c9958591e481d995c9a599a5959605a1b6044820152606401610275565b6040805160608101825233815242602082015260018183015290515f906103109086906107af565b9081526040805160209281900383019020835181546001600160a01b0319166001600160a01b03909116178155918301516001808401919091559201516002909101805460ff1916911515919091179055805480820182555f919091527fb10e2d527612073b26eecdfd717e6a320cf44b4afac2b0732d9fcbe2b7fa0cf6016103998482610811565b50336001600160a01b03167f1b58d5cd71972bc15c5d84d017448d77f30a9e19b68a3d3e44c168e90c38581b84426040516103d59291906108cc565b60405180910390a2600191505b50919050565b5f5f826040516103f891906107af565b9081526040519081900360200190206002015460ff1692915050565b5f5f5f5f5f8560405161042791906107af565b908152604080516020928190038301812060608201835280546001600160a01b0316808352600182015494830185905260029091015460ff161515919092018190529097919650945092505050565b60605f6104838385610901565b60015490915081111561049557506001545b5f6104a08583610914565b67ffffffffffffffff8111156104b8576104b86105d5565b6040519080825280602002602001820160405280156104eb57816020015b60608152602001906001900390816104d65790505b509050845b828110156105ca576001818154811061050b5761050b610927565b905f5260205f2001805461051e9061077d565b80601f016020809104026020016040519081016040528092919081815260200182805461054a9061077d565b80156105955780601f1061056c57610100808354040283529160200191610595565b820191905f5260205f20905b81548152906001019060200180831161057857829003601f168201915b50505050508287836105a79190610914565b815181106105b7576105b7610927565b60209081029190910101526001016104f0565b509150505b92915050565b634e487b7160e01b5f52604160045260245ffd5b5f602082840312156105f9575f5ffd5b813567ffffffffffffffff81111561060f575f5ffd5b8201601f8101841361061f575f5ffd5b803567ffffffffffffffff811115610639576106396105d5565b604051601f8201601f19908116603f0116810167ffffffffffffffff81118282101715610668576106686105d5565b60405281815282820160200186101561067f575f5ffd5b816020840160208301375f91810160200191909152949350505050565b5f602082840312156106ac575f5ffd5b5035919050565b5f81518084528060208401602086015e5f602082860101526020601f19601f83011685010191505092915050565b602081525f6106f360208301846106b3565b9392505050565b5f5f6040838503121561070b575f5ffd5b50508035926020909101359150565b5f602082016020835280845180835260408501915060408160051b8601019250602086015f5b8281101561077157603f1987860301845261075c8583516106b3565b94506020938401939190910190600101610740565b50929695505050505050565b600181811c9082168061079157607f821691505b6020821081036103e257634e487b7160e01b5f52602260045260245ffd5b5f82518060208501845e5f920191825250919050565b601f82111561080c57805f5260205f20601f840160051c810160208510156107ea5750805b601f840160051c820191505b81811015610809575f81556001016107f6565b50505b505050565b815167ffffffffffffffff81111561082b5761082b6105d5565b61083f81610839845461077d565b846107c5565b6020601f821160018114610871575f831561085a5750848201515b5f19600385901b1c1916600184901b178455610809565b5f84815260208120601f198516915b828110156108a05787850151825560209485019460019092019101610880565b50848210156108bd57868401515f19600387901b60f8161c191681555b50505050600190811b01905550565b604081525f6108de60408301856106b3565b90508260208301529392505050565b634e487b7160e01b5f52601160045260245ffd5b808201808211156105cf576105cf6108ed565b818103818111156105cf576105cf6108ed565b634e487b7160e01b5f52603260045260245ffdfea26469706673582212207e38915e3453126d169e3f785bd9c795c23d27b6d7dec8e809acba9e0c8e0bfe64736f6c634300081c0033",
  "linkReferences": {},
  "deployedLinkReferences": {},
  "immutableReferences": {},
  "inputSourceName": "project/contracts/FileVerification.sol",
  "buildInfoId": "solc-0_8_28-c602761bebf29c75599beaec9d53c015ed408811"
}