{
  "_format": "hh3-artifact-1",
  "contractName": "Verification",
  "sourceName": "contracts/Verification.sol",
  "abi": [
    {
      "inputs": [
        {
          "internalType": "string",
          "name": "verificationId",
          "type": "string"
        }
      ],
      "name": "getRecord",
      "outputs": [
        {
          "internalType": "string",
          "name": "",
          "type": "string"
        },
        {
          "internalType": "uint256",
          "name": "",
          "type": "uint256"
        }
      ],
      "stateMutability": "view",
      "type": "function"
    },
    {
      "inputs": [
        {
          "internalType": "string",
          "name": "",
          "type": "string"
        }
      ],
      "name": "records",
      "outputs": [
        {
          "internalType": "string",
          "name": "hash",
          "type": "string"
        },
        {
          "internalType": "uint256",
          "name": "timestamp",
          "type": "uint256"
        }
      ],
      "stateMutability": "view",
      "type": "function"
    },
    {
      "inputs": [
        {
          "internalType": "string",
          "name": "verificationId",
          "type": "string"
        },
        {
          "internalType": "string",
          "name": "hash",
          "type": "string"
        }
      ],
      "name": "storeHash",
      "outputs": [],
      "stateMutability": "nonpayable",
      "type": "function"
    }
  ],
  "bytecode": "0x6080604052348015600e575f5ffd5b506105708061001c5f395ff3fe608060405234801561000f575f5ffd5b506004361061003f575f3560e01c806311dd884514610043578063541e771d1461006d5780636f28ee0914610080575b5f5ffd5b61005661005136600461030a565b610095565b604051610064929190610344565b60405180910390f35b61005661007b36600461030a565b61016c565b61009361008e366004610380565b610218565b005b60605f5f5f846040516100a891906103e5565b90815260200160405180910390206040518060400160405290815f820180546100d0906103fb565b80601f01602080910402602001604051908101604052809291908181526020018280546100fc906103fb565b80156101475780601f1061011e57610100808354040283529160200191610147565b820191905f5260205f20905b81548152906001019060200180831161012a57829003601f168201915b5050509183525050600191909101546020918201528151910151909590945092505050565b80516020818301810180515f82529282019190930120915280548190610191906103fb565b80601f01602080910402602001604051908101604052809291908181526020018280546101bd906103fb565b80156102085780601f106101df57610100808354040283529160200191610208565b820191905f5260205f20905b8154815290600101906020018083116101eb57829003601f168201915b5050505050908060010154905082565b6040518060400160405280828152602001428152505f8360405161023c91906103e5565b90815260405190819003602001902081518190610259908261047f565b50602082015181600101559050505050565b634e487b7160e01b5f52604160045260245ffd5b5f82601f83011261028e575f5ffd5b813567ffffffffffffffff8111156102a8576102a861026b565b604051601f8201601f19908116603f0116810167ffffffffffffffff811182821017156102d7576102d761026b565b6040528181528382016020018510156102ee575f5ffd5b816020850160208301375f918101602001919091529392505050565b5f6020828403121561031a575f5ffd5b813567ffffffffffffffff811115610330575f5ffd5b61033c8482850161027f565b949350505050565b604081525f83518060408401528060208601606085015e5f606082850101526060601f19601f8301168401019150508260208301529392505050565b5f5f60408385031215610391575f5ffd5b823567ffffffffffffffff8111156103a7575f5ffd5b6103b38582860161027f565b925050602083013567ffffffffffffffff8111156103cf575f5ffd5b6103db8582860161027f565b9150509250929050565b5f82518060208501845e5f920191825250919050565b600181811c9082168061040f57607f821691505b60208210810361042d57634e487b7160e01b5f52602260045260245ffd5b50919050565b601f82111561047a57805f5260205f20601f840160051c810160208510156104585750805b601f840160051c820191505b81811015610477575f8155600101610464565b50505b505050565b815167ffffffffffffffff8111156104995761049961026b565b6104ad816104a784546103fb565b84610433565b6020601f8211600181146104df575f83156104c85750848201515b5f19600385901b1c1916600184901b178455610477565b5f84815260208120601f198516915b8281101561050e57878501518255602094850194600190920191016104ee565b508482101561052b57868401515f19600387901b60f8161c191681555b50505050600190811b0190555056fea2646970667358221220b91af1d663010aa8731d2850c9171c86ffbf0c2180865a212649fa547192724d64736f6c634300081c0033",
  "linkReferences": {},
  "deployedLinkReferences": {},
  "immutableReferences": {},
  "inputSourceName": "project/contracts/Verification.sol",
  "buildInfoId": "solc-0_8_28-648c5336eb2ce4120ca0e54d4b10d7b400d04b97"
}